:08000000803102288731FD2F39
:100E8A007830210099009A01980108008731452796
:100E9A0087318731602787318731542708004830E6
:100EAA0023009F0080309D0026309E00A0309B00CA
:100EBA0001309C00080022008C01373021008C0090
:100ECA00173023008C0024008C0122008E013D3053
:100EDA0021008E00253023008E0024008E0121007F
:100EEA00951700308B1B0130F0008B1355303C00F6
:100EFA008F00AA308F000F102408E0391338A4009D
:100F0A003D002408E0391438A40055303C008F0015
:100F1A00AA308F000F14701C942F8B1708008B13A4
:100F2A00080087314B278731C830F4000030F500BC
:100F3A007508803AF10080307102031DA62F013036
:100F4A007402031CB92F023022008E061030F20000
:100F5A009430F100F10BAF2FF20BAF2F0000FF30EE
:100F6A00F407FF30F53D9D2FC830F4000030F5003E
:100F7A007508803AF10080307102031DC62F0130D6
:100F8A007402031CD92F023022008E066830F20048
:100F9A00E430F100F10BCF2FF20BCF2F0000FF301E
:100FAA00F407FF30F53DBD2F6430F4000030F50042
:100FBA007508803AF10080307102031DE62F013076
:100FCA007402031C992F023022008E060230F300AD
:100FDA000430F200BA30F100F10BF12FF20BF12FCD
:100FEA00F30BF12F0000FF30F407FF30F53DDD2F42
:060FFA0020008731962F54
:020000040001F9
:04000E00E43FFF1FAD
:00000001FF
